{
  "address": "0xbBEc7302C9245e5cA2f9BFaaa2C99297Bf0c6184",
  "abi": [
    {
      "inputs": [
        {
          "internalType": "uint32",
          "name": "",
          "type": "uint32"
        },
        {
          "internalType": "bytes",
          "name": "",
          "type": "bytes"
        },
        {
          "internalType": "bytes",
          "name": "",
          "type": "bytes"
        },
        {
          "internalType": "address",
          "name": "",
          "type": "address"
        },
        {
          "internalType": "address",
          "name": "",
          "type": "address"
        },
        {
          "internalType": "bytes",
          "name": "",
          "type": "bytes"
        }
      ],
      "name": "send",
      "outputs": [],
      "stateMutability": "payable",
      "type": "function"
    }
  ],
  "transactionHash": "0x25dfef5ea86a941a043c6c2f1bfd14c5f5501b1721a9713364481fc11bf30c83",
  "args": [],
  "numDeployments": 1,
  "solcInputHash": "d12cc182f73ad8c6e5a8df9c2e54470b",
  "bytecode": "0x608060405234801561001057600080fd5b506101b5806100206000396000f3fe60806040526004361061001e5760003560e01c8063c02ec6cc14610023575b600080fd5b61003c6100313660046100a3565b505050505050505050565b005b60008083601f84011261005057600080fd5b50813567ffffffffffffffff81111561006857600080fd5b60208301915083602082850101111561008057600080fd5b9250929050565b80356001600160a01b038116811461009e57600080fd5b919050565b600080600080600080600080600060c08a8c0312156100c157600080fd5b893563ffffffff811681146100d557600080fd5b985060208a013567ffffffffffffffff808211156100f257600080fd5b6100fe8d838e0161003e565b909a50985060408c013591508082111561011757600080fd5b6101238d838e0161003e565b909850965086915061013760608d01610087565b955061014560808d01610087565b945060a08c013591508082111561015b57600080fd5b506101688c828d0161003e565b91508093505080915050929598509295985092959856fea2646970667358221220deb7e0a8f1eb8526d27f1caa389e8231fa69e986ad5439f9b7f3018a4da64bae64736f6c63430008160033",
  "devdoc": {
    "kind": "dev",
    "methods": {},
    "version": 1
  },
  "userdoc": {
    "kind": "user",
    "methods": {},
    "version": 1
  },
  "storageLayout": {
    "storage": [],
    "types": null
  }
}