{
  "address": "0xD7749d762dA7B537E17C14DA5A4b69a71d8bdc49",
  "abi": [
    {
      "inputs": [
        {
          "internalType": "address",
          "name": "_owner",
          "type": "address"
        }
      ],
      "stateMutability": "nonpayable",
      "type": "constructor"
    },
    {
      "inputs": [
        {
          "internalType": "address",
          "name": "spender",
          "type": "address"
        },
        {
          "internalType": "uint256",
          "name": "allowance",
          "type": "uint256"
        },
        {
          "internalType": "uint256",
          "name": "needed",
          "type": "uint256"
        }
      ],
      "name": "ERC20InsufficientAllowance",
      "type": "error"
    },
    {
      "inputs": [
        {
          "internalType": "address",
          "name": "sender",
          "type": "address"
        },
        {
          "internalType": "uint256",
          "name": "balance",
          "type": "uint256"
        },
        {
          "internalType": "uint256",
          "name": "needed",
          "type": "uint256"
        }
      ],
      "name": "ERC20InsufficientBalance",
      "type": "error"
    },
    {
      "inputs": [
        {
          "internalType": "address",
          "name": "approver",
          "type": "address"
        }
      ],
      "name": "ERC20InvalidApprover",
      "type": "error"
    },
    {
      "inputs": [
        {
          "internalType": "address",
          "name": "receiver",
          "type": "address"
        }
      ],
      "name": "ERC20InvalidReceiver",
      "type": "error"
    },
    {
      "inputs": [
        {
          "internalType": "address",
          "name": "sender",
          "type": "address"
        }
      ],
      "name": "ERC20InvalidSender",
      "type": "error"
    },
    {
      "inputs": [
        {
          "internalType": "address",
          "name": "spender",
          "type": "address"
        }
      ],
      "name": "ERC20InvalidSpender",
      "type": "error"
    },
    {
      "inputs": [
        {
          "internalType": "address",
          "name": "owner",
          "type": "address"
        }
      ],
      "name": "OwnableInvalidOwner",
      "type": "error"
    },
    {
      "inputs": [
        {
          "internalType": "address",
          "name": "account",
          "type": "address"
        }
      ],
      "name": "OwnableUnauthorizedAccount",
      "type": "error"
    },
    {
      "anonymous": false,
      "inputs": [
        {
          "indexed": true,
          "internalType": "address",
          "name": "owner",
          "type": "address"
        },
        {
          "indexed": true,
          "internalType": "address",
          "name": "spender",
          "type": "address"
        },
        {
          "indexed": false,
          "internalType": "uint256",
          "name": "value",
          "type": "uint256"
        }
      ],
      "name": "Approval",
      "type": "event"
    },
    {
      "anonymous": false,
      "inputs": [
        {
          "indexed": true,
          "internalType": "address",
          "name": "user",
          "type": "address"
        },
        {
          "indexed": false,
          "internalType": "uint256",
          "name": "amount",
          "type": "uint256"
        }
      ],
      "name": "Borrowed",
      "type": "event"
    },
    {
      "anonymous": false,
      "inputs": [
        {
          "indexed": true,
          "internalType": "address",
          "name": "user",
          "type": "address"
        },
        {
          "indexed": false,
          "internalType": "uint256",
          "name": "amount",
          "type": "uint256"
        }
      ],
      "name": "DebtReduced",
      "type": "event"
    },
    {
      "anonymous": false,
      "inputs": [
        {
          "indexed": true,
          "internalType": "address",
          "name": "user",
          "type": "address"
        },
        {
          "indexed": false,
          "internalType": "uint256",
          "name": "amount",
          "type": "uint256"
        }
      ],
      "name": "Deposited",
      "type": "event"
    },
    {
      "anonymous": false,
      "inputs": [
        {
          "indexed": true,
          "internalType": "address",
          "name": "user",
          "type": "address"
        },
        {
          "indexed": false,
          "internalType": "uint256",
          "name": "collateralSeized",
          "type": "uint256"
        },
        {
          "indexed": false,
          "internalType": "uint256",
          "name": "debtCleared",
          "type": "uint256"
        }
      ],
      "name": "Liquidated",
      "type": "event"
    },
    {
      "anonymous": false,
      "inputs": [
        {
          "indexed": true,
          "internalType": "address",
          "name": "previousOwner",
          "type": "address"
        },
        {
          "indexed": true,
          "internalType": "address",
          "name": "newOwner",
          "type": "address"
        }
      ],
      "name": "OwnershipTransferred",
      "type": "event"
    },
    {
      "anonymous": false,
      "inputs": [
        {
          "indexed": true,
          "internalType": "address",
          "name": "user",
          "type": "address"
        },
        {
          "indexed": false,
          "internalType": "uint256",
          "name": "amount",
          "type": "uint256"
        }
      ],
      "name": "Repaid",
      "type": "event"
    },
    {
      "anonymous": false,
      "inputs": [
        {
          "indexed": true,
          "internalType": "address",
          "name": "from",
          "type": "address"
        },
        {
          "indexed": true,
          "internalType": "address",
          "name": "to",
          "type": "address"
        },
        {
          "indexed": false,
          "internalType": "uint256",
          "name": "value",
          "type": "uint256"
        }
      ],
      "name": "Transfer",
      "type": "event"
    },
    {
      "inputs": [],
      "name": "COLLATERAL_RATIO",
      "outputs": [
        {
          "internalType": "uint256",
          "name": "",
          "type": "uint256"
        }
      ],
      "stateMutability": "view",
      "type": "function"
    },
    {
      "inputs": [
        {
          "internalType": "address",
          "name": "owner",
          "type": "address"
        },
        {
          "internalType": "address",
          "name": "spender",
          "type": "address"
        }
      ],
      "name": "allowance",
      "outputs": [
        {
          "internalType": "uint256",
          "name": "",
          "type": "uint256"
        }
      ],
      "stateMutability": "view",
      "type": "function"
    },
    {
      "inputs": [
        {
          "internalType": "address",
          "name": "spender",
          "type": "address"
        },
        {
          "internalType": "uint256",
          "name": "value",
          "type": "uint256"
        }
      ],
      "name": "approve",
      "outputs": [
        {
          "internalType": "bool",
          "name": "",
          "type": "bool"
        }
      ],
      "stateMutability": "nonpayable",
      "type": "function"
    },
    {
      "inputs": [
        {
          "internalType": "address",
          "name": "account",
          "type": "address"
        }
      ],
      "name": "balanceOf",
      "outputs": [
        {
          "internalType": "uint256",
          "name": "",
          "type": "uint256"
        }
      ],
      "stateMutability": "view",
      "type": "function"
    },
    {
      "inputs": [
        {
          "internalType": "uint256",
          "name": "amount",
          "type": "uint256"
        },
        {
          "internalType": "uint256",
          "name": "creditScore",
          "type": "uint256"
        }
      ],
      "name": "borrow",
      "outputs": [],
      "stateMutability": "nonpayable",
      "type": "function"
    },
    {
      "inputs": [
        {
          "internalType": "address",
          "name": "",
          "type": "address"
        }
      ],
      "name": "borrowed",
      "outputs": [
        {
          "internalType": "uint256",
          "name": "",
          "type": "uint256"
        }
      ],
      "stateMutability": "view",
      "type": "function"
    },
    {
      "inputs": [
        {
          "internalType": "uint256",
          "name": "creditScore",
          "type": "uint256"
        },
        {
          "internalType": "uint256",
          "name": "collateralValue",
          "type": "uint256"
        }
      ],
      "name": "calculateBorrowLimit",
      "outputs": [
        {
          "internalType": "uint256",
          "name": "",
          "type": "uint256"
        }
      ],
      "stateMutability": "pure",
      "type": "function"
    },
    {
      "inputs": [
        {
          "internalType": "address",
          "name": "",
          "type": "address"
        }
      ],
      "name": "collateral",
      "outputs": [
        {
          "internalType": "uint256",
          "name": "",
          "type": "uint256"
        }
      ],
      "stateMutability": "view",
      "type": "function"
    },
    {
      "inputs": [],
      "name": "decimals",
      "outputs": [
        {
          "internalType": "uint8",
          "name": "",
          "type": "uint8"
        }
      ],
      "stateMutability": "view",
      "type": "function"
    },
    {
      "inputs": [],
      "name": "deposit",
      "outputs": [],
      "stateMutability": "payable",
      "type": "function"
    },
    {
      "inputs": [
        {
          "internalType": "address",
          "name": "user",
          "type": "address"
        }
      ],
      "name": "liquidate",
      "outputs": [],
      "stateMutability": "nonpayable",
      "type": "function"
    },
    {
      "inputs": [],
      "name": "name",
      "outputs": [
        {
          "internalType": "string",
          "name": "",
          "type": "string"
        }
      ],
      "stateMutability": "view",
      "type": "function"
    },
    {
      "inputs": [],
      "name": "owner",
      "outputs": [
        {
          "internalType": "address",
          "name": "",
          "type": "address"
        }
      ],
      "stateMutability": "view",
      "type": "function"
    },
    {
      "inputs": [
        {
          "internalType": "uint256",
          "name": "amount",
          "type": "uint256"
        }
      ],
      "name": "reduceDebt",
      "outputs": [],
      "stateMutability": "nonpayable",
      "type": "function"
    },
    {
      "inputs": [],
      "name": "renounceOwnership",
      "outputs": [],
      "stateMutability": "nonpayable",
      "type": "function"
    },
    {
      "inputs": [
        {
          "internalType": "uint256",
          "name": "amount",
          "type": "uint256"
        }
      ],
      "name": "repay",
      "outputs": [],
      "stateMutability": "nonpayable",
      "type": "function"
    },
    {
      "inputs": [],
      "name": "symbol",
      "outputs": [
        {
          "internalType": "string",
          "name": "",
          "type": "string"
        }
      ],
      "stateMutability": "view",
      "type": "function"
    },
    {
      "inputs": [],
      "name": "totalSupply",
      "outputs": [
        {
          "internalType": "uint256",
          "name": "",
          "type": "uint256"
        }
      ],
      "stateMutability": "view",
      "type": "function"
    },
    {
      "inputs": [
        {
          "internalType": "address",
          "name": "to",
          "type": "address"
        },
        {
          "internalType": "uint256",
          "name": "value",
          "type": "uint256"
        }
      ],
      "name": "transfer",
      "outputs": [
        {
          "internalType": "bool",
          "name": "",
          "type": "bool"
        }
      ],
      "stateMutability": "nonpayable",
      "type": "function"
    },
    {
      "inputs": [
        {
          "internalType": "address",
          "name": "from",
          "type": "address"
        },
        {
          "internalType": "address",
          "name": "to",
          "type": "address"
        },
        {
          "internalType": "uint256",
          "name": "value",
          "type": "uint256"
        }
      ],
      "name": "transferFrom",
      "outputs": [
        {
          "internalType": "bool",
          "name": "",
          "type": "bool"
        }
      ],
      "stateMutability": "nonpayable",
      "type": "function"
    },
    {
      "inputs": [
        {
          "internalType": "address",
          "name": "newOwner",
          "type": "address"
        }
      ],
      "name": "transferOwnership",
      "outputs": [],
      "stateMutability": "nonpayable",
      "type": "function"
    },
    {
      "stateMutability": "payable",
      "type": "receive"
    }
  ],
  "transactionHash": "0x4e057e0f6b82e8bb72eb1ec7a6b3d9c85829d396e03c1c8601f6c26f2d5732bf",
  "args": [
    "0x93eC5e12AC770eF01920dF0D870b5A075937b55b"
  ],
  "numDeployments": 2,
  "solcInputHash": "46d885ca5da502e6575b0cc78566d92a",
  "bytecode": "0x60806040523480156200001157600080fd5b50604051620016bb380380620016bb8339810160408190526200003491620002b1565b806040518060400160405280600c81526020016b57726170706564205553444360a01b81525060405180604001604052806005815260200164775553444360d81b81525081600390816200008991906200038a565b5060046200009882826200038a565b5050506001600160a01b038116620000cb57604051631e4fbdf760e01b8152600060048201526024015b60405180910390fd5b620000d681620000ee565b50620000e781633b9aca0062000140565b506200047e565b600580546001600160a01b038381166001600160a01b0319831681179093556040519116919082907f8be0079c531659141344cd1fd0a4f28419497f9722a3daafe3b4186f6b6457e090600090a35050565b6001600160a01b0382166200016c5760405163ec442f0560e01b815260006004820152602401620000c2565b6200017a600083836200017e565b5050565b6001600160a01b038316620001ad578060026000828254620001a1919062000456565b90915550620002219050565b6001600160a01b03831660009081526020819052604090205481811015620002025760405163391434e360e21b81526001600160a01b03851660048201526024810182905260448101839052606401620000c2565b6001600160a01b03841660009081526020819052604090209082900390555b6001600160a01b0382166200023f576002805482900390556200025e565b6001600160a01b03821660009081526020819052604090208054820190555b816001600160a01b0316836001600160a01b03167fddf252ad1be2c89b69c2b068fc378daa952ba7f163c4a11628f55a4df523b3ef83604051620002a491815260200190565b60405180910390a3505050565b600060208284031215620002c457600080fd5b81516001600160a01b0381168114620002dc57600080fd5b9392505050565b634e487b7160e01b600052604160045260246000fd5b600181811c908216806200030e57607f821691505b6020821081036200032f57634e487b7160e01b600052602260045260246000fd5b50919050565b601f82111562000385576000816000526020600020601f850160051c81016020861015620003605750805b601f850160051c820191505b8181101562000381578281556001016200036c565b5050505b505050565b81516001600160401b03811115620003a657620003a6620002e3565b620003be81620003b78454620002f9565b8462000335565b602080601f831160018114620003f65760008415620003dd5750858301515b600019600386901b1c1916600185901b17855562000381565b600085815260208120601f198616915b82811015620004275788860151825594840194600190910190840162000406565b5085821015620004465787850151600019600388901b60f8161c191681555b5050505050600190811b01905550565b808201808211156200047857634e487b7160e01b600052601160045260246000fd5b92915050565b61122d806200048e6000396000f3fe60806040526004361061012e5760003560e01c8063715018a6116100ab578063c9e77ee81161006f578063c9e77ee814610358578063d0e30db014610378578063d9e69a0514610380578063dd62ed3e14610395578063f21c3f42146103b5578063f2fde38b146103d557600080fd5b8063715018a6146102b95780638da5cb5b146102ce57806395d89b41146102f6578063a5fdc5de1461030b578063a9059cbb1461033857600080fd5b806323b872dd116100f257806323b872dd146102075780632f86556814610227578063313ce56714610247578063371fd8e61461026357806370a082311461028357600080fd5b806306fdde031461013a5780630941cb3d14610165578063095ea7b3146101a05780630ecbcdab146101d057806318160ddd146101f257600080fd5b3661013557005b600080fd5b34801561014657600080fd5b5061014f6103f5565b60405161015c9190610fc6565b60405180910390f35b34801561017157600080fd5b50610192610180366004611031565b60076020526000908152604090205481565b60405190815260200161015c565b3480156101ac57600080fd5b506101c06101bb36600461104c565b610487565b604051901515815260200161015c565b3480156101dc57600080fd5b506101f06101eb366004611076565b6104a1565b005b3480156101fe57600080fd5b50600254610192565b34801561021357600080fd5b506101c0610222366004611098565b6105f7565b34801561023357600080fd5b506101f0610242366004611031565b61061b565b34801561025357600080fd5b506040516012815260200161015c565b34801561026f57600080fd5b506101f061027e3660046110d4565b6107e5565b34801561028f57600080fd5b5061019261029e366004611031565b6001600160a01b031660009081526020819052604090205490565b3480156102c557600080fd5b506101f06109aa565b3480156102da57600080fd5b506005546040516001600160a01b03909116815260200161015c565b34801561030257600080fd5b5061014f6109be565b34801561031757600080fd5b50610192610326366004611031565b60066020526000908152604090205481565b34801561034457600080fd5b506101c061035336600461104c565b6109cd565b34801561036457600080fd5b506101f06103733660046110d4565b6109db565b6101f0610afe565b34801561038c57600080fd5b50610192609681565b3480156103a157600080fd5b506101926103b03660046110ed565b610b98565b3480156103c157600080fd5b506101926103d0366004611076565b610bc3565b3480156103e157600080fd5b506101f06103f0366004611031565b610c33565b60606003805461040490611120565b80601f016020809104026020016040519081016040528092919081815260200182805461043090611120565b801561047d5780601f106104525761010080835404028352916020019161047d565b820191906000526020600020905b81548152906001019060200180831161046057829003601f168201915b5050505050905090565b600033610495818585610c71565b60019150505b92915050565b600082116104ca5760405162461bcd60e51b81526004016104c19061115a565b60405180910390fd5b336000908152600660205260408120546104e5908390610bc3565b90508083111561052e5760405162461bcd60e51b8152602060048201526014602482015273115e18d959591cc8189bdc9c9bddc81b1a5b5a5d60621b60448201526064016104c1565b3060009081526020819052604090205483111561058d5760405162461bcd60e51b815260206004820152601b60248201527f496e73756666696369656e7420775553444320696e207661756c74000000000060448201526064016104c1565b33600090815260076020526040812080548592906105ac908490611198565b909155506105bd9050303385610c83565b60405183815233907fac59582e5396aca512fa873a2047e7f4c80f8f55d4a06cb34a78a0187f62719f9060200160405180910390a2505050565b600033610605858285610ce2565b610610858585610c83565b506001949350505050565b6001600160a01b0381166000908152600660205260409020546106705760405162461bcd60e51b815260206004820152600d60248201526c139bc818dbdb1b185d195c985b609a1b60448201526064016104c1565b6001600160a01b038116600090815260076020526040902054806106c05760405162461bcd60e51b8152602060048201526007602482015266139bc81919589d60ca1b60448201526064016104c1565b6001600160a01b03821660009081526006602052604081205482906106e69060646111ab565b6106f091906111c2565b9050609681106107425760405162461bcd60e51b815260206004820152601760248201527f4e6f7420756e646572636f6c6c61746572616c697a656400000000000000000060448201526064016104c1565b6001600160a01b03831660009081526006602090815260408083208054908490556007909252808320839055519091339183156108fc0291849190818181858888f1935050505015801561079a573d6000803e3d6000fd5b5060408051828152602081018590526001600160a01b038616917f09c223cfcd8c93e245f558f5f8de755fc0930fd9bc257441155ef5d54a170e0f910160405180910390a250505050565b600081116108055760405162461bcd60e51b81526004016104c19061115a565b336000908152600760205260409020548111156108535760405162461bcd60e51b815260206004820152600c60248201526b4465627420746f6f206c6f7760a01b60448201526064016104c1565b336000908152602081905260409020548111156108b25760405162461bcd60e51b815260206004820152601a60248201527f496e73756666696369656e742077555344432062616c616e636500000000000060448201526064016104c1565b806108bd3330610b98565b10156109045760405162461bcd60e51b8152602060048201526016602482015275496e73756666696369656e7420616c6c6f77616e636560501b60448201526064016104c1565b61090f3330836105f7565b61094d5760405162461bcd60e51b815260206004820152600f60248201526e151c985b9cd9995c8819985a5b1959608a1b60448201526064016104c1565b336000908152600760205260408120805483929061096c9084906111e4565b909155505060405181815233907f0516911bcc3a0a7412a44601057c0a0a1ec628bde049a84284bc428866534488906020015b60405180910390a250565b6109b2610d48565b6109bc6000610d75565b565b60606004805461040490611120565b600033610495818585610c83565b600081116109fb5760405162461bcd60e51b81526004016104c19061115a565b33600090815260076020526040902054811115610a495760405162461bcd60e51b815260206004820152600c60248201526b4465627420746f6f206c6f7760a01b60448201526064016104c1565b30600090815260208190526040902054811115610aa85760405162461bcd60e51b815260206004820152601c60248201527f5661756c742068617320696e73756666696369656e742077555344430000000060448201526064016104c1565b3360009081526007602052604081208054839290610ac79084906111e4565b909155505060405181815233907f410bf8f3a906247c55a63eea095e87a478c24f3975d77375bfc666da2931b7259060200161099f565b60003411610b3d5760405162461bcd60e51b815260206004820152600c60248201526b139bc814909510c81cd95b9d60a21b60448201526064016104c1565b3360009081526006602052604081208054349290610b5c908490611198565b909155505060405134815233907f2da466a7b24304f47e87fa2e1e5a81b9831ce54fec19055ce277ca2f39ba42c49060200160405180910390a2565b6001600160a01b03918216600090815260016020908152604080832093909416825291909152205490565b6000605a8310610beb576064610bda83603c6111ab565b610be491906111c2565b905061049b565b60468310610c00576064610bda8360326111ab565b60328310610c15576064610bda83601e6111ab565b6064610c2283600a6111ab565b610c2c91906111c2565b9392505050565b610c3b610d48565b6001600160a01b038116610c6557604051631e4fbdf760e01b8152600060048201526024016104c1565b610c6e81610d75565b50565b610c7e8383836001610dc7565b505050565b6001600160a01b038316610cad57604051634b637e8f60e11b8152600060048201526024016104c1565b6001600160a01b038216610cd75760405163ec442f0560e01b8152600060048201526024016104c1565b610c7e838383610e9c565b6000610cee8484610b98565b90506000198114610d425781811015610d3357604051637dc7a0d960e11b81526001600160a01b038416600482015260248101829052604481018390526064016104c1565b610d4284848484036000610dc7565b50505050565b6005546001600160a01b031633146109bc5760405163118cdaa760e01b81523360048201526024016104c1565b600580546001600160a01b038381166001600160a01b0319831681179093556040519116919082907f8be0079c531659141344cd1fd0a4f28419497f9722a3daafe3b4186f6b6457e090600090a35050565b6001600160a01b038416610df15760405163e602df0560e01b8152600060048201526024016104c1565b6001600160a01b038316610e1b57604051634a1406b160e11b8152600060048201526024016104c1565b6001600160a01b0380851660009081526001602090815260408083209387168352929052208290558015610d4257826001600160a01b0316846001600160a01b03167f8c5be1e5ebec7d5bd14f71427d1e84f3dd0314c0f7b2291e5b200ac8c7c3b92584604051610e8e91815260200190565b60405180910390a350505050565b6001600160a01b038316610ec7578060026000828254610ebc9190611198565b90915550610f399050565b6001600160a01b03831660009081526020819052604090205481811015610f1a5760405163391434e360e21b81526001600160a01b038516600482015260248101829052604481018390526064016104c1565b6001600160a01b03841660009081526020819052604090209082900390555b6001600160a01b038216610f5557600280548290039055610f74565b6001600160a01b03821660009081526020819052604090208054820190555b816001600160a01b0316836001600160a01b03167fddf252ad1be2c89b69c2b068fc378daa952ba7f163c4a11628f55a4df523b3ef83604051610fb991815260200190565b60405180910390a3505050565b60006020808352835180602085015260005b81811015610ff457858101830151858201604001528201610fd8565b506000604082860101526040601f19601f8301168501019250505092915050565b80356001600160a01b038116811461102c57600080fd5b919050565b60006020828403121561104357600080fd5b610c2c82611015565b6000806040838503121561105f57600080fd5b61106883611015565b946020939093013593505050565b6000806040838503121561108957600080fd5b50508035926020909101359150565b6000806000606084860312156110ad57600080fd5b6110b684611015565b92506110c460208501611015565b9150604084013590509250925092565b6000602082840312156110e657600080fd5b5035919050565b6000806040838503121561110057600080fd5b61110983611015565b915061111760208401611015565b90509250929050565b600181811c9082168061113457607f821691505b60208210810361115457634e487b7160e01b600052602260045260246000fd5b50919050565b6020808252600e908201526d125b9d985b1a5908185b5bdd5b9d60921b604082015260600190565b634e487b7160e01b600052601160045260246000fd5b8082018082111561049b5761049b611182565b808202811582820484141761049b5761049b611182565b6000826111df57634e487b7160e01b600052601260045260246000fd5b500490565b8181038181111561049b5761049b61118256fea26469706673582212202ae48564149ff09155265bded49256b24a8b5c158dfdc7aa62797769c2f65dfe64736f6c63430008160033",
  "devdoc": {
    "errors": {
      "ERC20InsufficientAllowance(address,uint256,uint256)": [
        {
          "details": "Indicates a failure with the `spender`s `allowance`. Used in transfers.",
          "params": {
            "allowance": "Amount of tokens a `spender` is allowed to operate with.",
            "needed": "Minimum amount required to perform a transfer.",
            "spender": "Address that may be allowed to operate on tokens without being their owner."
          }
        }
      ],
      "ERC20InsufficientBalance(address,uint256,uint256)": [
        {
          "details": "Indicates an error related to the current `balance` of a `sender`. Used in transfers.",
          "params": {
            "balance": "Current balance for the interacting account.",
            "needed": "Minimum amount required to perform a transfer.",
            "sender": "Address whose tokens are being transferred."
          }
        }
      ],
      "ERC20InvalidApprover(address)": [
        {
          "details": "Indicates a failure with the `approver` of a token to be approved. Used in approvals.",
          "params": {
            "approver": "Address initiating an approval operation."
          }
        }
      ],
      "ERC20InvalidReceiver(address)": [
        {
          "details": "Indicates a failure with the token `receiver`. Used in transfers.",
          "params": {
            "receiver": "Address to which tokens are being transferred."
          }
        }
      ],
      "ERC20InvalidSender(address)": [
        {
          "details": "Indicates a failure with the token `sender`. Used in transfers.",
          "params": {
            "sender": "Address whose tokens are being transferred."
          }
        }
      ],
      "ERC20InvalidSpender(address)": [
        {
          "details": "Indicates a failure with the `spender` to be approved. Used in approvals.",
          "params": {
            "spender": "Address that may be allowed to operate on tokens without being their owner."
          }
        }
      ],
      "OwnableInvalidOwner(address)": [
        {
          "details": "The owner is not a valid owner account. (eg. `address(0)`)"
        }
      ],
      "OwnableUnauthorizedAccount(address)": [
        {
          "details": "The caller account is not authorized to perform an operation."
        }
      ]
    },
    "events": {
      "Approval(address,address,uint256)": {
        "details": "Emitted when the allowance of a `spender` for an `owner` is set by a call to {approve}. `value` is the new allowance."
      },
      "Transfer(address,address,uint256)": {
        "details": "Emitted when `value` tokens are moved from one account (`from`) to another (`to`). Note that `value` may be zero."
      }
    },
    "kind": "dev",
    "methods": {
      "allowance(address,address)": {
        "details": "See {IERC20-allowance}."
      },
      "approve(address,uint256)": {
        "details": "See {IERC20-approve}. NOTE: If `value` is the maximum `uint256`, the allowance is not updated on `transferFrom`. This is semantically equivalent to an infinite approval. Requirements: - `spender` cannot be the zero address."
      },
      "balanceOf(address)": {
        "details": "See {IERC20-balanceOf}."
      },
      "decimals()": {
        "details": "Returns the number of decimals used to get its user representation. For example, if `decimals` equals `2`, a balance of `505` tokens should be displayed to a user as `5.05` (`505 / 10 ** 2`). Tokens usually opt for a value of 18, imitating the relationship between Ether and Wei. This is the default value returned by this function, unless it's overridden. NOTE: This information is only used for _display_ purposes: it in no way affects any of the arithmetic of the contract, including {IERC20-balanceOf} and {IERC20-transfer}."
      },
      "name()": {
        "details": "Returns the name of the token."
      },
      "owner()": {
        "details": "Returns the address of the current owner."
      },
      "renounceOwnership()": {
        "details": "Leaves the contract without owner. It will not be possible to call `onlyOwner` functions. Can only be called by the current owner. NOTE: Renouncing ownership will leave the contract without an owner, thereby disabling any functionality that is only available to the owner."
      },
      "symbol()": {
        "details": "Returns the symbol of the token, usually a shorter version of the name."
      },
      "totalSupply()": {
        "details": "See {IERC20-totalSupply}."
      },
      "transfer(address,uint256)": {
        "details": "See {IERC20-transfer}. Requirements: - `to` cannot be the zero address. - the caller must have a balance of at least `value`."
      },
      "transferFrom(address,address,uint256)": {
        "details": "See {IERC20-transferFrom}. Emits an {Approval} event indicating the updated allowance. This is not required by the EIP. See the note at the beginning of {ERC20}. NOTE: Does not update the allowance if the current allowance is the maximum `uint256`. Requirements: - `from` and `to` cannot be the zero address. - `from` must have a balance of at least `value`. - the caller must have allowance for ``from``'s tokens of at least `value`."
      },
      "transferOwnership(address)": {
        "details": "Transfers ownership of the contract to a new account (`newOwner`). Can only be called by the current owner."
      }
    },
    "version": 1
  },
  "userdoc": {
    "kind": "user",
    "methods": {},
    "version": 1
  },
  "storageLayout": {
    "storage": [
      {
        "astId": 307,
        "contract": "contracts/RootstockVault.sol:RootstockVault",
        "label": "_balances",
        "offset": 0,
        "slot": "0",
        "type": "t_mapping(t_address,t_uint256)"
      },
      {
        "astId": 313,
        "contract": "contracts/RootstockVault.sol:RootstockVault",
        "label": "_allowances",
        "offset": 0,
        "slot": "1",
        "type": "t_mapping(t_address,t_mapping(t_address,t_uint256))"
      },
      {
        "astId": 315,
        "contract": "contracts/RootstockVault.sol:RootstockVault",
        "label": "_totalSupply",
        "offset": 0,
        "slot": "2",
        "type": "t_uint256"
      },
      {
        "astId": 317,
        "contract": "contracts/RootstockVault.sol:RootstockVault",
        "label": "_name",
        "offset": 0,
        "slot": "3",
        "type": "t_string_storage"
      },
      {
        "astId": 319,
        "contract": "contracts/RootstockVault.sol:RootstockVault",
        "label": "_symbol",
        "offset": 0,
        "slot": "4",
        "type": "t_string_storage"
      },
      {
        "astId": 8,
        "contract": "contracts/RootstockVault.sol:RootstockVault",
        "label": "_owner",
        "offset": 0,
        "slot": "5",
        "type": "t_address"
      },
      {
        "astId": 945,
        "contract": "contracts/RootstockVault.sol:RootstockVault",
        "label": "collateral",
        "offset": 0,
        "slot": "6",
        "type": "t_mapping(t_address,t_uint256)"
      },
      {
        "astId": 949,
        "contract": "contracts/RootstockVault.sol:RootstockVault",
        "label": "borrowed",
        "offset": 0,
        "slot": "7",
        "type": "t_mapping(t_address,t_uint256)"
      }
    ],
    "types": {
      "t_address": {
        "encoding": "inplace",
        "label": "address",
        "numberOfBytes": "20"
      },
      "t_mapping(t_address,t_mapping(t_address,t_uint256))": {
        "encoding": "mapping",
        "key": "t_address",
        "label": "mapping(address => mapping(address => uint256))",
        "numberOfBytes": "32",
        "value": "t_mapping(t_address,t_uint256)"
      },
      "t_mapping(t_address,t_uint256)": {
        "encoding": "mapping",
        "key": "t_address",
        "label": "mapping(address => uint256)",
        "numberOfBytes": "32",
        "value": "t_uint256"
      },
      "t_string_storage": {
        "encoding": "bytes",
        "label": "string",
        "numberOfBytes": "32"
      },
      "t_uint256": {
        "encoding": "inplace",
        "label": "uint256",
        "numberOfBytes": "32"
      }
    }
  }
}