{
  "address": "0xf748869c88013d14e67558Dd05D139E87b2D9086",
  "abi": [
    {
      "inputs": [
        {
          "internalType": "address",
          "name": "_owner",
          "type": "address"
        }
      ],
      "stateMutability": "nonpayable",
      "type": "constructor"
    },
    {
      "inputs": [
        {
          "internalType": "address",
          "name": "spender",
          "type": "address"
        },
        {
          "internalType": "uint256",
          "name": "allowance",
          "type": "uint256"
        },
        {
          "internalType": "uint256",
          "name": "needed",
          "type": "uint256"
        }
      ],
      "name": "ERC20InsufficientAllowance",
      "type": "error"
    },
    {
      "inputs": [
        {
          "internalType": "address",
          "name": "sender",
          "type": "address"
        },
        {
          "internalType": "uint256",
          "name": "balance",
          "type": "uint256"
        },
        {
          "internalType": "uint256",
          "name": "needed",
          "type": "uint256"
        }
      ],
      "name": "ERC20InsufficientBalance",
      "type": "error"
    },
    {
      "inputs": [
        {
          "internalType": "address",
          "name": "approver",
          "type": "address"
        }
      ],
      "name": "ERC20InvalidApprover",
      "type": "error"
    },
    {
      "inputs": [
        {
          "internalType": "address",
          "name": "receiver",
          "type": "address"
        }
      ],
      "name": "ERC20InvalidReceiver",
      "type": "error"
    },
    {
      "inputs": [
        {
          "internalType": "address",
          "name": "sender",
          "type": "address"
        }
      ],
      "name": "ERC20InvalidSender",
      "type": "error"
    },
    {
      "inputs": [
        {
          "internalType": "address",
          "name": "spender",
          "type": "address"
        }
      ],
      "name": "ERC20InvalidSpender",
      "type": "error"
    },
    {
      "inputs": [
        {
          "internalType": "address",
          "name": "owner",
          "type": "address"
        }
      ],
      "name": "OwnableInvalidOwner",
      "type": "error"
    },
    {
      "inputs": [
        {
          "internalType": "address",
          "name": "account",
          "type": "address"
        }
      ],
      "name": "OwnableUnauthorizedAccount",
      "type": "error"
    },
    {
      "anonymous": false,
      "inputs": [
        {
          "indexed": true,
          "internalType": "address",
          "name": "owner",
          "type": "address"
        },
        {
          "indexed": true,
          "internalType": "address",
          "name": "spender",
          "type": "address"
        },
        {
          "indexed": false,
          "internalType": "uint256",
          "name": "value",
          "type": "uint256"
        }
      ],
      "name": "Approval",
      "type": "event"
    },
    {
      "anonymous": false,
      "inputs": [
        {
          "indexed": true,
          "internalType": "address",
          "name": "previousOwner",
          "type": "address"
        },
        {
          "indexed": true,
          "internalType": "address",
          "name": "newOwner",
          "type": "address"
        }
      ],
      "name": "OwnershipTransferred",
      "type": "event"
    },
    {
      "anonymous": false,
      "inputs": [
        {
          "indexed": true,
          "internalType": "address",
          "name": "from",
          "type": "address"
        },
        {
          "indexed": true,
          "internalType": "address",
          "name": "to",
          "type": "address"
        },
        {
          "indexed": false,
          "internalType": "uint256",
          "name": "value",
          "type": "uint256"
        }
      ],
      "name": "Transfer",
      "type": "event"
    },
    {
      "inputs": [],
      "name": "COLLATERAL_RATIO",
      "outputs": [
        {
          "internalType": "uint256",
          "name": "",
          "type": "uint256"
        }
      ],
      "stateMutability": "view",
      "type": "function"
    },
    {
      "inputs": [
        {
          "internalType": "address",
          "name": "owner",
          "type": "address"
        },
        {
          "internalType": "address",
          "name": "spender",
          "type": "address"
        }
      ],
      "name": "allowance",
      "outputs": [
        {
          "internalType": "uint256",
          "name": "",
          "type": "uint256"
        }
      ],
      "stateMutability": "view",
      "type": "function"
    },
    {
      "inputs": [
        {
          "internalType": "address",
          "name": "spender",
          "type": "address"
        },
        {
          "internalType": "uint256",
          "name": "value",
          "type": "uint256"
        }
      ],
      "name": "approve",
      "outputs": [
        {
          "internalType": "bool",
          "name": "",
          "type": "bool"
        }
      ],
      "stateMutability": "nonpayable",
      "type": "function"
    },
    {
      "inputs": [
        {
          "internalType": "address",
          "name": "account",
          "type": "address"
        }
      ],
      "name": "balanceOf",
      "outputs": [
        {
          "internalType": "uint256",
          "name": "",
          "type": "uint256"
        }
      ],
      "stateMutability": "view",
      "type": "function"
    },
    {
      "inputs": [
        {
          "internalType": "uint256",
          "name": "amount",
          "type": "uint256"
        },
        {
          "internalType": "uint256",
          "name": "creditScore",
          "type": "uint256"
        }
      ],
      "name": "borrow",
      "outputs": [],
      "stateMutability": "nonpayable",
      "type": "function"
    },
    {
      "inputs": [
        {
          "internalType": "address",
          "name": "",
          "type": "address"
        }
      ],
      "name": "borrowed",
      "outputs": [
        {
          "internalType": "uint256",
          "name": "",
          "type": "uint256"
        }
      ],
      "stateMutability": "view",
      "type": "function"
    },
    {
      "inputs": [
        {
          "internalType": "uint256",
          "name": "creditScore",
          "type": "uint256"
        },
        {
          "internalType": "uint256",
          "name": "collateralValue",
          "type": "uint256"
        }
      ],
      "name": "calculateBorrowLimit",
      "outputs": [
        {
          "internalType": "uint256",
          "name": "",
          "type": "uint256"
        }
      ],
      "stateMutability": "pure",
      "type": "function"
    },
    {
      "inputs": [
        {
          "internalType": "address",
          "name": "",
          "type": "address"
        }
      ],
      "name": "collateral",
      "outputs": [
        {
          "internalType": "uint256",
          "name": "",
          "type": "uint256"
        }
      ],
      "stateMutability": "view",
      "type": "function"
    },
    {
      "inputs": [],
      "name": "decimals",
      "outputs": [
        {
          "internalType": "uint8",
          "name": "",
          "type": "uint8"
        }
      ],
      "stateMutability": "view",
      "type": "function"
    },
    {
      "inputs": [],
      "name": "deposit",
      "outputs": [],
      "stateMutability": "payable",
      "type": "function"
    },
    {
      "inputs": [
        {
          "internalType": "address",
          "name": "user",
          "type": "address"
        }
      ],
      "name": "liquidate",
      "outputs": [],
      "stateMutability": "nonpayable",
      "type": "function"
    },
    {
      "inputs": [],
      "name": "name",
      "outputs": [
        {
          "internalType": "string",
          "name": "",
          "type": "string"
        }
      ],
      "stateMutability": "view",
      "type": "function"
    },
    {
      "inputs": [],
      "name": "owner",
      "outputs": [
        {
          "internalType": "address",
          "name": "",
          "type": "address"
        }
      ],
      "stateMutability": "view",
      "type": "function"
    },
    {
      "inputs": [],
      "name": "renounceOwnership",
      "outputs": [],
      "stateMutability": "nonpayable",
      "type": "function"
    },
    {
      "inputs": [
        {
          "internalType": "uint256",
          "name": "amount",
          "type": "uint256"
        }
      ],
      "name": "repay",
      "outputs": [],
      "stateMutability": "nonpayable",
      "type": "function"
    },
    {
      "inputs": [],
      "name": "symbol",
      "outputs": [
        {
          "internalType": "string",
          "name": "",
          "type": "string"
        }
      ],
      "stateMutability": "view",
      "type": "function"
    },
    {
      "inputs": [],
      "name": "totalSupply",
      "outputs": [
        {
          "internalType": "uint256",
          "name": "",
          "type": "uint256"
        }
      ],
      "stateMutability": "view",
      "type": "function"
    },
    {
      "inputs": [
        {
          "internalType": "address",
          "name": "to",
          "type": "address"
        },
        {
          "internalType": "uint256",
          "name": "value",
          "type": "uint256"
        }
      ],
      "name": "transfer",
      "outputs": [
        {
          "internalType": "bool",
          "name": "",
          "type": "bool"
        }
      ],
      "stateMutability": "nonpayable",
      "type": "function"
    },
    {
      "inputs": [
        {
          "internalType": "address",
          "name": "from",
          "type": "address"
        },
        {
          "internalType": "address",
          "name": "to",
          "type": "address"
        },
        {
          "internalType": "uint256",
          "name": "value",
          "type": "uint256"
        }
      ],
      "name": "transferFrom",
      "outputs": [
        {
          "internalType": "bool",
          "name": "",
          "type": "bool"
        }
      ],
      "stateMutability": "nonpayable",
      "type": "function"
    },
    {
      "inputs": [
        {
          "internalType": "address",
          "name": "newOwner",
          "type": "address"
        }
      ],
      "name": "transferOwnership",
      "outputs": [],
      "stateMutability": "nonpayable",
      "type": "function"
    },
    {
      "stateMutability": "payable",
      "type": "receive"
    }
  ],
  "transactionHash": "0x8f975a71601d38ad99378676c4d508a3174c701b96abd6aeef1d60266c8879bd",
  "args": [
    "0x93eC5e12AC770eF01920dF0D870b5A075937b55b"
  ],
  "numDeployments": 1,
  "solcInputHash": "bd546dd2746588a85bb22ab8b4967e23",
  "bytecode": "0x60806040523480156200001157600080fd5b50604051620013f6380380620013f68339810160408190526200003491620002b1565b806040518060400160405280600c81526020016b57726170706564205553444360a01b81525060405180604001604052806005815260200164775553444360d81b81525081600390816200008991906200038a565b5060046200009882826200038a565b5050506001600160a01b038116620000cb57604051631e4fbdf760e01b8152600060048201526024015b60405180910390fd5b620000d681620000ee565b50620000e781633b9aca0062000140565b506200047e565b600580546001600160a01b038381166001600160a01b0319831681179093556040519116919082907f8be0079c531659141344cd1fd0a4f28419497f9722a3daafe3b4186f6b6457e090600090a35050565b6001600160a01b0382166200016c5760405163ec442f0560e01b815260006004820152602401620000c2565b6200017a600083836200017e565b5050565b6001600160a01b038316620001ad578060026000828254620001a1919062000456565b90915550620002219050565b6001600160a01b03831660009081526020819052604090205481811015620002025760405163391434e360e21b81526001600160a01b03851660048201526024810182905260448101839052606401620000c2565b6001600160a01b03841660009081526020819052604090209082900390555b6001600160a01b0382166200023f576002805482900390556200025e565b6001600160a01b03821660009081526020819052604090208054820190555b816001600160a01b0316836001600160a01b03167fddf252ad1be2c89b69c2b068fc378daa952ba7f163c4a11628f55a4df523b3ef83604051620002a491815260200190565b60405180910390a3505050565b600060208284031215620002c457600080fd5b81516001600160a01b0381168114620002dc57600080fd5b9392505050565b634e487b7160e01b600052604160045260246000fd5b600181811c908216806200030e57607f821691505b6020821081036200032f57634e487b7160e01b600052602260045260246000fd5b50919050565b601f82111562000385576000816000526020600020601f850160051c81016020861015620003605750805b601f850160051c820191505b8181101562000381578281556001016200036c565b5050505b505050565b81516001600160401b03811115620003a657620003a6620002e3565b620003be81620003b78454620002f9565b8462000335565b602080601f831160018114620003f65760008415620003dd5750858301515b600019600386901b1c1916600185901b17855562000381565b600085815260208120601f198616915b82811015620004275788860151825594840194600190910190840162000406565b5085821015620004465787850151600019600388901b60f8161c191681555b5050505050600190811b01905550565b808201808211156200047857634e487b7160e01b600052601160045260246000fd5b92915050565b610f68806200048e6000396000f3fe6080604052600436106101235760003560e01c8063715018a6116100a0578063d0e30db011610064578063d0e30db01461034d578063d9e69a0514610355578063dd62ed3e1461036a578063f21c3f42146103b0578063f2fde38b146103d057600080fd5b8063715018a6146102ae5780638da5cb5b146102c357806395d89b41146102eb578063a5fdc5de14610300578063a9059cbb1461032d57600080fd5b806323b872dd116100e757806323b872dd146101fc5780632f8655681461021c578063313ce5671461023c578063371fd8e61461025857806370a082311461027857600080fd5b806306fdde031461012f5780630941cb3d1461015a578063095ea7b3146101955780630ecbcdab146101c557806318160ddd146101e757600080fd5b3661012a57005b600080fd5b34801561013b57600080fd5b506101446103f0565b6040516101519190610d29565b60405180910390f35b34801561016657600080fd5b50610187610175366004610d94565b60076020526000908152604090205481565b604051908152602001610151565b3480156101a157600080fd5b506101b56101b0366004610daf565b610482565b6040519015158152602001610151565b3480156101d157600080fd5b506101e56101e0366004610dd9565b61049c565b005b3480156101f357600080fd5b50600254610187565b34801561020857600080fd5b506101b5610217366004610dfb565b6105cf565b34801561022857600080fd5b506101e5610237366004610d94565b6105f3565b34801561024857600080fd5b5060405160128152602001610151565b34801561026457600080fd5b506101e5610273366004610e37565b610779565b34801561028457600080fd5b50610187610293366004610d94565b6001600160a01b031660009081526020819052604090205490565b3480156102ba57600080fd5b506101e561087d565b3480156102cf57600080fd5b506005546040516001600160a01b039091168152602001610151565b3480156102f757600080fd5b50610144610891565b34801561030c57600080fd5b5061018761031b366004610d94565b60066020526000908152604090205481565b34801561033957600080fd5b506101b5610348366004610daf565b6108a0565b6101e56108ae565b34801561036157600080fd5b50610187609681565b34801561037657600080fd5b50610187610385366004610e50565b6001600160a01b03918216600090815260016020908152604080832093909416825291909152205490565b3480156103bc57600080fd5b506101876103cb366004610dd9565b610913565b3480156103dc57600080fd5b506101e56103eb366004610d94565b610983565b6060600380546103ff90610e83565b80601f016020809104026020016040519081016040528092919081815260200182805461042b90610e83565b80156104785780601f1061044d57610100808354040283529160200191610478565b820191906000526020600020905b81548152906001019060200180831161045b57829003601f168201915b5050505050905090565b6000336104908185856109c1565b60019150505b92915050565b600082116104e25760405162461bcd60e51b815260206004820152600e60248201526d125b9d985b1a5908185b5bdd5b9d60921b60448201526064015b60405180910390fd5b336000908152600660205260408120546104fd908390610913565b9050808311156105465760405162461bcd60e51b8152602060048201526014602482015273115e18d959591cc8189bdc9c9bddc81b1a5b5a5d60621b60448201526064016104d9565b3060009081526020819052604090205483111561059a5760405162461bcd60e51b8152602060048201526012602482015271496e73756666696369656e7420775553444360701b60448201526064016104d9565b33600090815260076020526040812080548592906105b9908490610ed3565b909155506105ca90503033856109ce565b505050565b6000336105dd858285610a2d565b6105e88585856109ce565b506001949350505050565b6001600160a01b0381166000908152600660205260409020546106485760405162461bcd60e51b815260206004820152600d60248201526c139bc818dbdb1b185d195c985b609a1b60448201526064016104d9565b6001600160a01b038116600090815260076020526040902054806106985760405162461bcd60e51b8152602060048201526007602482015266139bc81919589d60ca1b60448201526064016104d9565b6001600160a01b03821660009081526006602052604081205482906106be906064610ee6565b6106c89190610efd565b90506096811061071a5760405162461bcd60e51b815260206004820152601760248201527f4e6f7420756e646572636f6c6c61746572616c697a656400000000000000000060448201526064016104d9565b6001600160a01b03831660009081526006602090815260408083208054908490556007909252808320839055519091339183156108fc0291849190818181858888f19350505050158015610772573d6000803e3d6000fd5b5050505050565b600081116107ba5760405162461bcd60e51b815260206004820152600e60248201526d125b9d985b1a5908185b5bdd5b9d60921b60448201526064016104d9565b3360009081526007602052604090205481111561080d5760405162461bcd60e51b8152602060048201526011602482015270125b9d985b1a59081c995c185e5b595b9d607a1b60448201526064016104d9565b6108183330836105cf565b6108565760405162461bcd60e51b815260206004820152600f60248201526e151c985b9cd9995c8819985a5b1959608a1b60448201526064016104d9565b3360009081526007602052604081208054839290610875908490610f1f565b909155505050565b610885610aab565b61088f6000610ad8565b565b6060600480546103ff90610e83565b6000336104908185856109ce565b600034116108ed5760405162461bcd60e51b815260206004820152600c60248201526b139bc814909510c81cd95b9d60a21b60448201526064016104d9565b336000908152600660205260408120805434929061090c908490610ed3565b9091555050565b6000605a831061093b57606461092a83603c610ee6565b6109349190610efd565b9050610496565b6046831061095057606461092a836032610ee6565b6032831061096557606461092a83601e610ee6565b606461097283600a610ee6565b61097c9190610efd565b9392505050565b61098b610aab565b6001600160a01b0381166109b557604051631e4fbdf760e01b8152600060048201526024016104d9565b6109be81610ad8565b50565b6105ca8383836001610b2a565b6001600160a01b0383166109f857604051634b637e8f60e11b8152600060048201526024016104d9565b6001600160a01b038216610a225760405163ec442f0560e01b8152600060048201526024016104d9565b6105ca838383610bff565b6001600160a01b038381166000908152600160209081526040808320938616835292905220546000198114610aa55781811015610a9657604051637dc7a0d960e11b81526001600160a01b038416600482015260248101829052604481018390526064016104d9565b610aa584848484036000610b2a565b50505050565b6005546001600160a01b0316331461088f5760405163118cdaa760e01b81523360048201526024016104d9565b600580546001600160a01b038381166001600160a01b0319831681179093556040519116919082907f8be0079c531659141344cd1fd0a4f28419497f9722a3daafe3b4186f6b6457e090600090a35050565b6001600160a01b038416610b545760405163e602df0560e01b8152600060048201526024016104d9565b6001600160a01b038316610b7e57604051634a1406b160e11b8152600060048201526024016104d9565b6001600160a01b0380851660009081526001602090815260408083209387168352929052208290558015610aa557826001600160a01b0316846001600160a01b03167f8c5be1e5ebec7d5bd14f71427d1e84f3dd0314c0f7b2291e5b200ac8c7c3b92584604051610bf191815260200190565b60405180910390a350505050565b6001600160a01b038316610c2a578060026000828254610c1f9190610ed3565b90915550610c9c9050565b6001600160a01b03831660009081526020819052604090205481811015610c7d5760405163391434e360e21b81526001600160a01b038516600482015260248101829052604481018390526064016104d9565b6001600160a01b03841660009081526020819052604090209082900390555b6001600160a01b038216610cb857600280548290039055610cd7565b6001600160a01b03821660009081526020819052604090208054820190555b816001600160a01b0316836001600160a01b03167fddf252ad1be2c89b69c2b068fc378daa952ba7f163c4a11628f55a4df523b3ef83604051610d1c91815260200190565b60405180910390a3505050565b60006020808352835180602085015260005b81811015610d5757858101830151858201604001528201610d3b565b506000604082860101526040601f19601f8301168501019250505092915050565b80356001600160a01b0381168114610d8f57600080fd5b919050565b600060208284031215610da657600080fd5b61097c82610d78565b60008060408385031215610dc257600080fd5b610dcb83610d78565b946020939093013593505050565b60008060408385031215610dec57600080fd5b50508035926020909101359150565b600080600060608486031215610e1057600080fd5b610e1984610d78565b9250610e2760208501610d78565b9150604084013590509250925092565b600060208284031215610e4957600080fd5b5035919050565b60008060408385031215610e6357600080fd5b610e6c83610d78565b9150610e7a60208401610d78565b90509250929050565b600181811c90821680610e9757607f821691505b602082108103610eb757634e487b7160e01b600052602260045260246000fd5b50919050565b634e487b7160e01b600052601160045260246000fd5b8082018082111561049657610496610ebd565b808202811582820484141761049657610496610ebd565b600082610f1a57634e487b7160e01b600052601260045260246000fd5b500490565b8181038181111561049657610496610ebd56fea2646970667358221220acd9e2bda574e025231ff762bfecb0e21e25711e52bcc57e432196f7ab91ba3964736f6c63430008160033",
  "devdoc": {
    "errors": {
      "ERC20InsufficientAllowance(address,uint256,uint256)": [
        {
          "details": "Indicates a failure with the `spender`s `allowance`. Used in transfers.",
          "params": {
            "allowance": "Amount of tokens a `spender` is allowed to operate with.",
            "needed": "Minimum amount required to perform a transfer.",
            "spender": "Address that may be allowed to operate on tokens without being their owner."
          }
        }
      ],
      "ERC20InsufficientBalance(address,uint256,uint256)": [
        {
          "details": "Indicates an error related to the current `balance` of a `sender`. Used in transfers.",
          "params": {
            "balance": "Current balance for the interacting account.",
            "needed": "Minimum amount required to perform a transfer.",
            "sender": "Address whose tokens are being transferred."
          }
        }
      ],
      "ERC20InvalidApprover(address)": [
        {
          "details": "Indicates a failure with the `approver` of a token to be approved. Used in approvals.",
          "params": {
            "approver": "Address initiating an approval operation."
          }
        }
      ],
      "ERC20InvalidReceiver(address)": [
        {
          "details": "Indicates a failure with the token `receiver`. Used in transfers.",
          "params": {
            "receiver": "Address to which tokens are being transferred."
          }
        }
      ],
      "ERC20InvalidSender(address)": [
        {
          "details": "Indicates a failure with the token `sender`. Used in transfers.",
          "params": {
            "sender": "Address whose tokens are being transferred."
          }
        }
      ],
      "ERC20InvalidSpender(address)": [
        {
          "details": "Indicates a failure with the `spender` to be approved. Used in approvals.",
          "params": {
            "spender": "Address that may be allowed to operate on tokens without being their owner."
          }
        }
      ],
      "OwnableInvalidOwner(address)": [
        {
          "details": "The owner is not a valid owner account. (eg. `address(0)`)"
        }
      ],
      "OwnableUnauthorizedAccount(address)": [
        {
          "details": "The caller account is not authorized to perform an operation."
        }
      ]
    },
    "events": {
      "Approval(address,address,uint256)": {
        "details": "Emitted when the allowance of a `spender` for an `owner` is set by a call to {approve}. `value` is the new allowance."
      },
      "Transfer(address,address,uint256)": {
        "details": "Emitted when `value` tokens are moved from one account (`from`) to another (`to`). Note that `value` may be zero."
      }
    },
    "kind": "dev",
    "methods": {
      "allowance(address,address)": {
        "details": "See {IERC20-allowance}."
      },
      "approve(address,uint256)": {
        "details": "See {IERC20-approve}. NOTE: If `value` is the maximum `uint256`, the allowance is not updated on `transferFrom`. This is semantically equivalent to an infinite approval. Requirements: - `spender` cannot be the zero address."
      },
      "balanceOf(address)": {
        "details": "See {IERC20-balanceOf}."
      },
      "decimals()": {
        "details": "Returns the number of decimals used to get its user representation. For example, if `decimals` equals `2`, a balance of `505` tokens should be displayed to a user as `5.05` (`505 / 10 ** 2`). Tokens usually opt for a value of 18, imitating the relationship between Ether and Wei. This is the default value returned by this function, unless it's overridden. NOTE: This information is only used for _display_ purposes: it in no way affects any of the arithmetic of the contract, including {IERC20-balanceOf} and {IERC20-transfer}."
      },
      "name()": {
        "details": "Returns the name of the token."
      },
      "owner()": {
        "details": "Returns the address of the current owner."
      },
      "renounceOwnership()": {
        "details": "Leaves the contract without owner. It will not be possible to call `onlyOwner` functions. Can only be called by the current owner. NOTE: Renouncing ownership will leave the contract without an owner, thereby disabling any functionality that is only available to the owner."
      },
      "symbol()": {
        "details": "Returns the symbol of the token, usually a shorter version of the name."
      },
      "totalSupply()": {
        "details": "See {IERC20-totalSupply}."
      },
      "transfer(address,uint256)": {
        "details": "See {IERC20-transfer}. Requirements: - `to` cannot be the zero address. - the caller must have a balance of at least `value`."
      },
      "transferFrom(address,address,uint256)": {
        "details": "See {IERC20-transferFrom}. Emits an {Approval} event indicating the updated allowance. This is not required by the EIP. See the note at the beginning of {ERC20}. NOTE: Does not update the allowance if the current allowance is the maximum `uint256`. Requirements: - `from` and `to` cannot be the zero address. - `from` must have a balance of at least `value`. - the caller must have allowance for ``from``'s tokens of at least `value`."
      },
      "transferOwnership(address)": {
        "details": "Transfers ownership of the contract to a new account (`newOwner`). Can only be called by the current owner."
      }
    },
    "version": 1
  },
  "userdoc": {
    "kind": "user",
    "methods": {},
    "version": 1
  },
  "storageLayout": {
    "storage": [
      {
        "astId": 4140,
        "contract": "contracts/RootstockVault.sol:RootstockVault",
        "label": "_balances",
        "offset": 0,
        "slot": "0",
        "type": "t_mapping(t_address,t_uint256)"
      },
      {
        "astId": 4146,
        "contract": "contracts/RootstockVault.sol:RootstockVault",
        "label": "_allowances",
        "offset": 0,
        "slot": "1",
        "type": "t_mapping(t_address,t_mapping(t_address,t_uint256))"
      },
      {
        "astId": 4148,
        "contract": "contracts/RootstockVault.sol:RootstockVault",
        "label": "_totalSupply",
        "offset": 0,
        "slot": "2",
        "type": "t_uint256"
      },
      {
        "astId": 4150,
        "contract": "contracts/RootstockVault.sol:RootstockVault",
        "label": "_name",
        "offset": 0,
        "slot": "3",
        "type": "t_string_storage"
      },
      {
        "astId": 4152,
        "contract": "contracts/RootstockVault.sol:RootstockVault",
        "label": "_symbol",
        "offset": 0,
        "slot": "4",
        "type": "t_string_storage"
      },
      {
        "astId": 3841,
        "contract": "contracts/RootstockVault.sol:RootstockVault",
        "label": "_owner",
        "offset": 0,
        "slot": "5",
        "type": "t_address"
      },
      {
        "astId": 6253,
        "contract": "contracts/RootstockVault.sol:RootstockVault",
        "label": "collateral",
        "offset": 0,
        "slot": "6",
        "type": "t_mapping(t_address,t_uint256)"
      },
      {
        "astId": 6257,
        "contract": "contracts/RootstockVault.sol:RootstockVault",
        "label": "borrowed",
        "offset": 0,
        "slot": "7",
        "type": "t_mapping(t_address,t_uint256)"
      }
    ],
    "types": {
      "t_address": {
        "encoding": "inplace",
        "label": "address",
        "numberOfBytes": "20"
      },
      "t_mapping(t_address,t_mapping(t_address,t_uint256))": {
        "encoding": "mapping",
        "key": "t_address",
        "label": "mapping(address => mapping(address => uint256))",
        "numberOfBytes": "32",
        "value": "t_mapping(t_address,t_uint256)"
      },
      "t_mapping(t_address,t_uint256)": {
        "encoding": "mapping",
        "key": "t_address",
        "label": "mapping(address => uint256)",
        "numberOfBytes": "32",
        "value": "t_uint256"
      },
      "t_string_storage": {
        "encoding": "bytes",
        "label": "string",
        "numberOfBytes": "32"
      },
      "t_uint256": {
        "encoding": "inplace",
        "label": "uint256",
        "numberOfBytes": "32"
      }
    }
  }
}